:020000040802F0
:1000000000060030A10D0208DD140C08E1140C08F4
:100010004D150C08E1140C0819150C08A30D020865
:10002000A30D0208A30D0208A30D0208618A14089B
:10003000A30D0208A30D0208A30D0208A30D0208D8
:10004000A30D0208A30D0208A30D0208A30D0208C8
:10005000A30D0208A30D0208B5011508E10115085A
:100060000D0215083902150865021508F1941408E7
:100070001995140845951408719514089D95140850
:10008000C5951408F195140859941408F5030C0843
:100090000D050C087D040C0895050C089102150847
:1000A000A30D0208F5031508A30D0208E1031508C6
:1000B000F9031508A30D02080D041508659E140820
:1000C000A19E1408DD9E1408199F140809AB14089A
:1000D0001DAB1408A30D0208690315087D0315085C
:1000E000F5021508A30D0208A30D0208A30D0208CE
:1000F000A30D0208A30D0208A30D02081D96140803
:10010000A30D020829A4140821041508A30D020850
:1001100091031508A30D0208A30D0208A30D020800
:1001200049961408719614089D961408C9961408E7
:10013000F5961408A30D0208A30D0208A30D0208EA
:10014000A30D0208A30D0208A30D0208A30D0208C7
:100150001D9714084997140875971408A5031508E6
:10016000A30D0208A30D0208A30D0208A30D0208A7
:10017000A30D02080DFE1408A30D0208A30D02082A
:10018000A30D0208A30D0208B9031508CD03150835
:1001900031AB1408A30D0208A30D0208A30D020839
:1001A000A30D0208A30D0208A30D0208A30D020867
:1001B000A30D0208A30D0208A30D0208A30D020857
:1001C000A30D0208A30D0208A30D0208A30D020847
:1001D000A30D0208F9FD1408A30D0208A30D0208DF
:1001E000A30D0208A30D0208A30D0208A30D020827
:1001F000A30D0208A30D0208A30D0208A30D020817
:10020000A30D0208A30D0208A30D0208A30D020806
:10021000A30D0208A30D0208A30D0208A30D0208F6
:10022000A30D0208A30D0208A30D0208A30D0208E6
:10023000A30D0208A30D0208A30D0208A30D0208D6
:10024000A30D0208A30D0208A30D0208A30D0208C6
:10025000A30D0208A30D0208A30D0208A30D0208B6
:10026000A30D0208A30D0208A30D0208A30D0208A6
:10027000A30D0208A30D0208A30D0208A30D020896
:10028000A30D0208A30D0208A30D0208A30D020886
:10029000A30D0208A30D0208A30D0208A30D020876
:1002A0002D400208B56802087D110308152C0308CB
:1002B000ED39030839660308DD71030855CA0308E0
:1002C000E1F1030881670408D5580508C5810708CE
:1002D00089AE0708B5BE0708A5DA0708813E0808F9
:1002E0007D470808214B080871C6080829E6080858
:1002F00089E909087D2F0A08E93C0A08D1DC0B08C6
:1003000025060C08C1080C08210D0C0829D20D087F
:1003100005F40D085DF90D0899090E084D230E0826
:1003200081230E08D96D0E0839BA0E08E1E90E08CE
:10033000F91D0F0855240F08D96A0F08010F10087E
:10034000E1D411083DD91108D9D911086DDC110883
:10035000690F1208095F1208A5F612082DFE12088F
:1003600045261308753013085968130849A913085E
:1003700081F0004102E000BF83F0004330B54FEA56
:1003800041044FEA430594EA050F08BF90EA020FC3
:100390001FBF54EA000C55EA020C7FEA645C7FEA56
:1003A000655C00F0E2804FEA5454D4EB5555B8BF79
:1003B0006D420CDD2C4480EA020281EA030382EAEA
:1003C000000083EA010180EA020281EA0303362D7C
:1003D00088BF30BD11F0004F4FEA01314FF4801C4F
:1003E0004CEA113102D0404261EB410113F0004F61
:1003F0004FEA03334CEA133302D0524263EB430318
:1004000094EA050F00F0A780A4F10104D5F1200EB5
:100410000DDB02FA0EFC22FA05F2801841F1000110
:1004200003FA0EF2801843FA05F359410EE0A5F1E4
:1004300020050EF1200E012A03FA0EFC28BF4CF015
:10044000020C43FA05F3C01851EBE37101F00045CB
:1004500007D54FF0000EDCF1000C7EEB00006EEBD8
:100460000101B1F5801F1BD3B1F5001F0CD3490862
:100470005FEA30004FEA3C0C04F101044FEA4452B9
:1004800012F5800F80F09A80BCF1004F08BF5FEA40
:10049000500C50F1000041EB045141EA050130BD20
:1004A0005FEA4C0C404141EB010111F4801FA4F1C3
:1004B0000104E9D191F0000F04BF01460020B1FA18
:1004C00081F308BF2033A3F10B03B3F120020CDA50
:1004D0000C3208DD02F1140CC2F10C0201FA0CF02E
:1004E00021FA02F10CE002F11402D8BFC2F1200C93
:1004F00001FA02F120FA0CFCDCBF41EA0C01904049
:10050000E41AA2BF01EB0451294330BD6FEA040491
:100510001F3C1CDA0C340EDC04F11404C4F120027C
:1005200020FA04F001FA02F340EA030021FA04F38E
:1005300045EA030130BDC4F10C04C4F1200220FAE5
:1005400002F001FA04F340EA0300294630BD21FA23
:1005500004F0294630BD94F0000F83F4801306BFE9
:1005600081F480110134013D4EE77FEA645C18BFDD
:100570007FEA655C29D094EA050F08BF90EA020F74
:1005800005D054EA000C04BF1946104630BD91EA6C
:10059000030F1EBF0021002030BD5FEA545C05D16F
:1005A0004000494128BF41F0004130BD14F58004AE
:1005B0003CBF01F5801130BD01F0004545F0FE4122
:1005C00041F470014FF0000030BD7FEA645C1ABF57
:1005D000194610467FEA655C1CBF0B46024650EA8E
:1005E000013406BF52EA033591EA030F41F40021BA
:1005F00030BD00BF90F0000F04BF0021704730B540
:100600004FF4806404F132044FF000054FF0000114
:1006100050E700BF90F0000F04BF0021704730B5D5
:100620004FF4806404F1320410F0004548BF4042AA
:100630004FF000013EE700BF42004FEAE2014FEAFF
:1006400031014FEA02701FBF12F07F4393F07F4FDA
:1006500081F06051704792F0000F14BF93F07F4F0C
:10066000704730B54FF4607401F0004521F000414F
:1006700020E700BF50EA010208BF704730B54FF0D5
:1006800000050AE050EA010208BF704730B511F0DA
:10069000004502D5404261EB41014FF4806404F112
:1006A00032045FEA915C3FF4DCAE4FF003025FEA94
:1006B000DC0C18BF03325FEADC0C18BF033202EB1C
:1006C000DC02C2F1200300FA03FC20FA02F001FA76
:1006D00003FE40EA0E0021FA02F11444C1E600BF15
:1006E00080F0004002E000BF81F0004142001FBFE7
:1006F0005FEA410392EA030F7FEA226C7FEA236CF0
:100700006AD04FEA1262D2EB1363C1BFD2184140E4
:1007100048404140B8BF5B42192B88BF704710F07A
:10072000004F40F4000020F07F4018BF404211F01D
:10073000004F41F4000121F07F4118BF494292EA85
:10074000030F3FD0A2F1010241FA03FC10EB0C00B1
:10075000C3F1200301FA03F100F0004302D549423E
:1007600060EB4000B0F5000F13D3B0F1807F06D3EB
:1007700040084FEA310102F10102FE2A51D2B1F1E3
:10078000004F40EBC25008BF20F0010040EA0300D8
:100790007047490040EB000010F4000FA2F1010285
:1007A000EDD1B0FA80FCACF1080CB2EB0C0200FA0F
:1007B0000CF0AABF00EBC25052421843BCBFD0405D
:1007C0001843704792F0000F81F4000106BF80F4D7
:1007D00000000132013BB5E74FEA41037FEA226C9A
:1007E00018BF7FEA236C21D092EA030F04D092F065
:1007F000000F08BF0846704790EA010F1CBF002099
:10080000704712F07F4F04D1400028BF40F00040F5
:10081000704712F100723CBF00F50000704700F015
:10082000004343F0FE4040F4000070477FEA22623C
:1008300016BF08467FEA23630146420206BF5FEA0D
:10084000412390EA010F40F4800070474FF000030D
:1008500004E000BF10F0004348BF40425FEA000CD4
:1008600008BF704743F0964301464FF000001CE07C
:1008700050EA010208BF70474FF000030AE000BFD2
:1008800050EA010208BF704711F0004302D5404210
:1008900061EB41015FEA010C02BF84460146002082
:1008A00043F0B64308BFA3F18053A3F50003BCFA9D
:1008B0008CF2083AA3EBC25310DB01FA02FC63444A
:1008C00000FA02FCC2F12002BCF1004F20FA02F251
:1008D00043EB020008BF20F00100704702F1200244
:1008E00001FA02FCC2F1200250EA4C0021FA02F2A5
:1008F00043EB020008BF20EADC7070477BB972B995
:100900000029BEBF00204FF0004106E008BF0028CC
:100910001CBF6FF000414FF0FF3000F03FBAADF167
:10092000080C6DE904CE002909DB002B1ADB00F06E
:10093000C7F8DDF804E0DDE9022304B07047404267
:1009400061EB4101002B1BDB00F0BAF8DDF804E09D
:10095000DDE9022304B0404261EB4101524263EB06
:1009600043037047524263EB430300F0A9F8DDF8FC
:1009700004E0DDE9022304B0404261EB410170472D
:10098000524263EB430300F09BF8DDF804E0DDE93D
:10099000022304B0524263EB4303704753B94AB990
:1009A000002908BF00281CBF4FF0FF314FF0FF3077
:1009B00000F0F4B9ADF1080C6DE904CE00F080F858
:1009C000DDF804E0DDE9022304B07047430803F0DA
:1009D0005533C01A830803F0333300F03330184422
:1009E00000EB101000F00F3000EB002000EB004097
:1009F000000E704780EA104080EA102080EA101054
:100A000046F6961300F00F0043FA00F000F00100E4
:100A1000704700BF41EC170BB5EEC07BF1EE10FA4A
:100A200001D400F02DB808B581F0004100F028F89D
:100A3000404261EB410108BD9FED0D6B07EE900A4E
:100A40009FED0D5BB7EEE77A27EE066BBCEEC66B4B
:100A50000020B8EE464BA4EE457BBCEEC77B16EEFD
:100A6000101A17EE103A1843704700BFAFF300801A
:100A7000000000000000F03D000000000000F04118
:100A80009FED0B6B41EC170B9FED0B5B27EE066B9D
:100A9000BCEEC66B0020B8EE464BA4EE457BBCEE28
:100AA000C77B16EE101A17EE103A1843704700BFB6
:100AB000000000000000F03D000000000000F041D8
:100AC0002DE9F0478C460D460446089E002B51D177
:100AD0008A4217466DD9B2FA82FEBEF1000F0BD0E2
:100AE000CEF1200C01FA0EF520FA0CFC02FA0EF7FA
:100AF0004CEA050C00FA0EF44FEA174A250CBCFB31
:100B0000FAF81FFA87F90AFB18CC45EA0C4508FBEE
:100B100009F3AB420AD9ED1908F1FF3280F02381C5
:100B2000AB4240F22081A8F102083D44ED1AA4B284
:100B3000B5FBFAF00AFB105544EA054400FB09F93D
:100B4000A14509D9E41900F1FF3380F00A81A145DC
:100B500040F2078102383C44A4EB090440EA084013
:100B60000021002E61D024FA0EF40023346073605B
:100B7000BDE8F0878B4207D9002E54D0002186E8CB
:100B800021000846BDE8F087B3FA83F1002940F060
:100B90008E80AB4202D3824200F2FA80841A65EB67
:100BA00003050120AC46002E3FD086E81010BDE8BA
:100BB000F08712B90127B7FBF2F7B7FA87FEBEF14B
:100BC000000F34D1EB1B3A0C1FFA87FC0121B3FB59
:100BD000F2F8250C02FB183345EA03450CFB08F339
:100BE000AB4207D9ED1908F1FF3002D2AB4200F257
:100BF000D1808046ED1AA3B2B5FBF2F002FB10558E
:100C000043EA05440CFB00FCA44507D9E41900F1B4
:100C1000FF3302D2A44500F2B8801846A4EB0C04BE
:100C200040EA08409DE731463046BDE8F087CEF106
:100C3000200405FA0EF307FA0EF720FA04F83A0C2E
:100C400025FA04F448EA0308B4FBF2F14FEA184528
:100C500002FB11441FFA87FC45EA044501FB0CF333
:100C6000AB4200FA0EF409D9ED1901F1FF3080F022
:100C70008A80AB4240F2878002393D44EB1A1FFA6A
:100C800088F5B3FBF2F002FB103345EA034500FBA5
:100C90000CF3AB4207D9ED1900F1FF386FD2AB422C
:100CA0006DD902383D44EB1A40EA01418FE7C1F1AA
:100CB000200722FA07F88B4005FA01F448EA0303FB
:100CC00020FA07FE4FEA134CFD404EEA040EB5FB36
:100CD000FCF94FEA1E440CFB19551FFA83F844EA4D
:100CE000054509FB08F4AC4202FA01F200FA01FAE8
:100CF00008D9ED1809F1FF3043D2AC4241D9A9F12E
:100D000002091D442D1B1FFA8EFEB5FBFCF00CFBE7
:100D100010554EEA054400FB08F8A04507D9E41831
:100D200000F1FF3529D2A04527D902381C4440EAFA
:100D30000940A4EB0804A0FB02894C45C6464D4679
:100D400015D312D056B1BAEB0E0364EB050404FAC6
:100D500007F7CB401F43CC40376074600021BDE8EB
:100D6000F0871846F8E69046E0E6C245EAD2B8EBCE
:100D7000020E69EB03050138E4E72846D7E7404651
:100D800091E78146BEE7014678E702383C4445E7F3
:100D9000084608E7A8F102083D442BE7704700BF6A
:100DA00002E000F000F8FEE772B63A4880F30888E7
:100DB000394880F3098839484EF60851CEF20001CF
:100DC000086040F20000CCF200004EF63471CEF222
:100DD00000010860BFF34F8FBFF36F8F40F2000038
:100DE000C0F2F0004EF68851CEF200010860BFF369
:100DF0004F8FBFF36F8F4FF00000E1EE100A4EF6F9
:100E00003C71CEF200010860062080F31488BFF325
:100E10006F8F2EF1FBF92EF185F92DF101F94FF0CD
:100E200055301F491B4A91423CBF41F8040BFAE779
:100E30001C49194A91423CBF41F8040BFAE71A4990
:100E40001A4A1B4B9A423EBF51F8040B42F8040B5E
:100E5000F8E700201749184A91423CBF41F8040BBB
:100E6000FAE72EF1A3F92DF1CDF9144C144DAC4253
:100E700003DA54F8041B8847F9E700F08FFE114CA1
:100E8000114DAC4203DA54F8041B8847F9E72EF100
:100E90008BB900000006003000220030000002087C
:100EA000000000300006003088D71808002200300B
:100EB000F4250030F8250030B0E90130A002020826
:100EC0007003020870030208700302082DE9F04F56
:100ED0002DED108AC1F80CD0D0F80CD0BDEC108AE2
:100EE000BDE8F08F002383F311882846A047002037
:100EF0002CF186FEFEE72CF1ABFC00DFFEE70000E4
:100F000070B54FF0FF0C4CF4E06C1CEA11541DBF9F
:100F10001CEA135594EA0C0F95EA0C0F00F0DEF86A
:100F20002C4481EA030621EA4C5123EA4C5350EA4F
:100F3000013518BF52EA033541F4801143F48013A0
:100F400038D0A0FB02CE4FF00005E1FB02E506F031
:100F50000042E0FB03E54FF00006E1FB03569CF086
:100F6000000F18BF4EF0010EA4F1FF04B6F5007F8C
:100F700064F5407404D25FEA4E0E6D4146EB0606FE
:100F800042EAC62141EA55514FEAC52040EA5E5087
:100F90004FEACE2EB4F1FD0C88BFBCF5E06F1ED831
:100FA000BEF1004F08BF5FEA500E50F1000041EB68
:100FB000045170BD06F0004646EA010140EA020015
:100FC00081EA0301B4EB5C04C2BFD4EB0C0541EA37
:100FD000045170BD41F480114FF0000E013C00F34C
:100FE000AB8014F1360FDEBF002001F0004170BD70
:100FF000C4F10004203C35DA0C341BDC04F1140489
:10100000C4F1200500FA05F320FA04F001FA05F214
:1010100040EA020001F0004221F0004110EBD370E1
:1010200021FA04F642EB06015EEA430E08BF20EA0D
:10103000D37070BDC4F10C04C4F1200500FA04F3B0
:1010400020FA05F001FA04F240EA020001F0004142
:1010500010EBD37041F100015EEA430E08BF20EAB5
:10106000D37070BDC4F1200500FA05F24EEA020EFD
:1010700020FA04F301FA05F243EA020321FA04F02C
:1010800001F0004121FA04F220EA020000EBD370E3
:101090005EEA430E08BF20EAD37070BD94F0000FE3
:1010A0000FD101F00046400041EB010111F4801F17
:1010B00008BF013CF7D041EA060195F0000F18BFC8
:1010C000704703F00046520043EB030313F4801F04
:1010D00008BF013DF7D043EA0603704794EA0C0FBE
:1010E0000CEA135518BF95EA0C0F0CD050EA4106D4
:1010F00018BF52EA4306D1D181EA030101F0004151
:101100004FF0000070BD50EA410606BF1046194678
:1011100052EA430619D094EA0C0F02D150EA013684
:1011200013D195EA0C0F05D152EA03361CBF1046C5
:1011300019460AD181EA030101F0004141F0FE4164
:1011400041F470014FF0000070BD41F0FE4141F4E8
:10115000780170BD70B54FF0FF0C4CF4E06C1CEAE8
:1011600011541DBF1CEA135594EA0C0F95EA0C0F9D
:1011700000F0A7F8A4EB050481EA030E52EA033558
:101180004FEA013100F088804FEA03334FF0805579
:1011900045EA131343EA12634FEA022245EA1115A6
:1011A00045EA10654FEA00260EF000419D4208BF57
:1011B000964244F1FD0404F5407402D25B084FEA04
:1011C0003202B61A65EB03055B084FEA32024FF4B0
:1011D00080104FF4002CB6EB020E75EB030E22BF0D
:1011E000B61A754640EA0C005B084FEA3202B6EBCD
:1011F000020E75EB030E22BFB61A754640EA5C007C
:101200005B084FEA3202B6EB020E75EB030E22BF0B
:10121000B61A754640EA9C005B084FEA3202B6EB0C
:10122000020E75EB030E22BFB61A754640EADC00CB
:1012300055EA060E18D04FEA051545EA16754FEA2D
:1012400006164FEAC30343EA52734FEAC2025FEA4B
:101250001C1CC0D111F4801F0BD141EA00014FF0DA
:1012600000004FF0004CB6E711F4801F04BF0143AB
:101270000020B4F1FD0C88BFBCF5E06F3FF6AFAEC7
:10128000B5EB030C04BFB6EB020C5FEA500C50F157
:10129000000041EB045170BD0EF0004E4EEA1131DA
:1012A00014EB5C04C2BFD4EB0C0541EA045170BDE1
:1012B00041F480114FF0000E013C90E645EA060E25
:1012C0008DE60CEA135594EA0C0F08BF95EA0C0F53
:1012D0003FF43BAF94EA0C0F0AD150EA01347FF49B
:1012E00034AF95EA0C0F7FF425AF104619462CE772
:1012F00095EA0C0F06D152EA03353FF4FDAE1046D5
:10130000194622E750EA410618BF52EA43067FF425
:10131000C5AE50EA41047FF40DAF52EA43057FF4B5
:10132000EBAE12E74FEA410212F5001215D211D5C9
:101330006FF47873B3EB625212D94FEAC12343F0D2
:10134000004343EA505311F0004F23FA02F018BF54
:10135000404270474FF00000704750EA013005D11D
:1013600011F0004008BF6FF0004070474FF00000E0
:10137000704700BF4FEA4102B2F1E04324BFB3F52A
:10138000001CDCF1FE5C0DD901F0004C4FEAC002FC
:101390004CEA5070B2F1004F40EB830008BF20F0E0
:1013A0000100704711F0804F21D113F13872BCBF9A
:1013B00001F00040704741F480114FEA5252C2F1EF
:1013C0001802C2F1200C10FA0CF320FA02F018BF38
:1013D00040F001004FEAC1234FEAD32303FA0CFC8B
:1013E00040EA0C0023FA02F34FEA4303CCE77FEA1A
:1013F000625307D150EA01331EBF4FF0FE4040F464
:101400004000704701F0004040F0FE4040F4000012
:10141000704700BF01F0FF01102A2BDB10F0070F0F
:1014200008D010F8013B013A8B422DD010F0070F85
:1014300042B3F6D1F0B441EA012141EA014122F080
:1014400007047FF000070023F0E80256083C85EA15
:10145000010586EA010685FA47F5A3FA87F586FABB
:1014600047F6A5FA87F68EB9EED1F0BC01F0FF0180
:1014700002F0070232B110F8013B013A83EA01039E
:1014800013B1F8D10020704701387047002D06BF16
:1014900035460338073815F0010F07D1013015F430
:1014A000807F02BF013015F4C03F0130F0BC01382D
:1014B000704700BFEC46A0E8F05F4FF000007047B7
:1014C000B0E8F05FE546080008BF0120704700BFA4
:1014D00010F8012B11F8013B012A28BF9A42F7D0DE
:1014E000D01A7047034613F8012B002AFBD1181AB3
:1014F0000138704701207047F0B50B4B85B043F2BF
:10150000585543F25C5243F2645743F260545E59BB
:101510001C599D586A46DB59009601950294039325
:101520009CF09EF905B0F0BD0026003070B5002497
:10153000154E2546E1B2304607F04AF9002196F0F3
:10154000E7F9022804F101041BD0042819D001286E
:1015500008BF0125102CEDD185B100240A4EE1B25F
:10156000304607F035F9012196F0D2F9022804F14E
:10157000010407D0042805D0102CF0D100252846FE
:1015800070BD0125284670BD0026003070B5047E70
:101590000CB1204670BD05460E46FFF7C7FF044656
:1015A000314628461CB1BDE870409CF029BA024A79
:1015B0009BF042F9204670BDF08C150870B590B0D4
:1015C00005460E469BF0DEFB044690B1AB6813F077
:1015D000110F0ED03222002103A834F119F80CF0BB
:1015E00029FA016803AA32238C6A0021A047044625
:1015F00010B1204610B070BD03AB32462846102112
:101600000093024B9AF044FFF3E700BFE48C150807
:101610002DE9F041324D2B781BB100263046BDE854
:10162000F08101272F709CF0A9FA064638B92D4A9F
:101630002870304613783B431370BDE8F0815EF0AC
:101640005FFB39465DF040FD274806F021FB0B2487
:10165000264B1F7154F068FD54F0BCFC013CF9D1DD
:101660000CF0E8F9DFF8808043F64C4382690746C6
:1016700048F8032090F84831DA0705D59B0703D4D2
:101680002146404602F084FD97F880300121184A37
:1016900043F00403126887F88030D06C27F00EFE08
:1016A000114808F021FC0121124897F0E9FF5EF093
:1016B00027FB43F64C1342F6943218F8031018F83F
:1016C00002205DF0CDFE084806F0D4FA5BF002F887
:1016D0005AF038FC002330462B70BDE8F08100BF83
:1016E000F8250030187D003000260030FC7C0030EA
:1016F000FC250030745F00302DE9F04143F6E11322
:10170000294C84B0E35C23B90025284604B0BDE829
:10171000F0819CF09FFA05460028F5D00EF06CFD94
:1017200003688046D3F8A0309847F0B900211F48DD
:1017300097F0A6FF1E4832F009F95EF0E1FA0021A9
:101740005DF0C2FC98F880301A4A00216FF38203E2
:10175000126888F88030D06C27F0B0FD124807F08E
:10176000D3F9284604B0BDE8F0811BF06DF990F97B
:101770002430022BDAD10024002601E0032CD5D03E
:10178000E7B201AA40460134394601960296039613
:101790000EF012FB0028F1D01BF056F901AA3946D1
:1017A0001AF096FBEAE700BF00260030745F0030B5
:1017B000585C0030FC250030002070470020704746
:1017C00000207047002070470020704700207047BD
:1017D00000207047002070470020704700207047AD
:1017E000002070470020704700207047704700BFFE
:1017F000704700BF0120704743F64C13C05C704730
:1018000030B40820034D17240D601470186030BCEC
:10181000704700BF588D1508002301200B607047EA
:1018200008F09EBE09F066BA08F072BE15F0FEBD63
:101830005AF06ABE29F000BD5DF0CEBD6DF0E6BA8B
:1018400050307DF059BB00BF69F07EBE6AF02ABE01
:1018500054F0C0BB11F046B909F050BA08F08EBE82
:101860001DF080BC10B5044606F012FC204606F0C0
:10187000E7FC204606F0D6FD204606F095FB6CF00E
:10188000EDF86BF0CBFFBDE810406CF091B900BFF4
:10189000FFF7E8BF38B5044643F66040204411F036
:1018A000D9FF1BF0D1F890F9213003B938BD43F6C8
:1018B000AC1004F5E765204460F0CAFAB7EE001AF0
:1018C00090ED000A7C20DFED070A2CF0A9F994F9CD
:1018D00074372846012B08BF85ED130ABDE8384050
:1018E0001AF08CBB00000000FFF7D4BF38B502210E
:1018F000044608F0F1FF00285AD14FF40031204689
:1019000008F0EAFF00284FD14021204608F0E4FF0C
:10191000002843D14FF48061204608F0DDFFB8BBBA
:101920002021204608F0D8FF20BB8021204608F067
:10193000D3FF80B12BF06EFC28F0A0FD10212046D3
:1019400008F0CAFF00B938BD44F2F8202044BDE8D1
:10195000384090F00BBD4FF48021204608F0BCFFCA
:101960000028E7D14FF40021204608F0B5FF0028F9
:10197000E0D1E3E743F64C152046615D06F0D0FE6A
:10198000002851D044F23860204493F013FDCCE796
:1019900043F2705020445CF095FBC1E743F2705075
:1019A00020445CF0F3FAB5E7204601F077FCABE7A2
:1019B0000121204608F090FF00289ED1204601F02A
:1019C00039FC44F2386344F2F82243F6741144F2CD
:1019D0003C2023442144224420440BF025FA4FF4B8
:1019E0008051204608F078FF002886D043F27055D9
:1019F00004F58942A621254428465CF04FFE44F2B6
:101A000040522846A72122445CF048FE284604F5AF
:101A10008C42A8215CF042FE44F618022846A92117
:101A200022445CF03BFE68E7615D204606F088FEDC
:101A30000028A7D079E700BFFFF758BF38B50121CC
:101A4000044608F049FF28B98021204608F044FFE9
:101A5000B0BB38BD204601F0EDFB44F2386344F2E0
:101A6000F82243F6741144F23C20234421442244DA
:101A700020440BF0D9F94FF48051204608F02CFF98
:101A80000028E1D043F2705504F58942A62125448F
:101A900028465CF003FE44F240522846A721224427
:101AA0005CF0FCFD284604F58C42A8215CF0F6FDB4
:101AB00044F618022846A92122445CF0EFFDC3E752
:101AC00020464FF4002108F007FF0028C1D12BF079
:101AD000A1FBBDE8384028F0B3BC00BFFFF7AEBFA4
:101AE00010B5044643F20860204495F03DFF2046BF
:101AF00006F070F9204606F0D1F8204606F01CF9F1
:101B0000204606F015FB204606F056FC204606F05F
:101B10001DFD41F638702044BDE8104073F022BB33
:101B2000FFF7DEBF10B5044608F09EFC10212046EA
:101B300008F0D2FE00B910BD204601F0E1FC41F6EC
:101B400030002044BDE8104086F03ABAFFF7EABF03
:101B500043F64912034610B5805C10F001040FD023
:101B600043F66D129A5CD20701D4012010BD43F2F6
:101B70003070084A0421184460F07AFE002010BD3D
:101B800043F23070044A0421184460F071FE20468C
:101B900010BD00BF4C8F15082C8F150810B5054CD3
:101BA0000A460146044B206804682468A0470020C8
:101BB00010BD00BFFC2500300026003070B5044683
:101BC00044F2681043F6481600212044254DFFF7E3
:101BD000DDFCA35D0246204662F30003AA71A35513
:101BE00009F076F843F6E113E8714FF6FF71E35C14
:101BF00020466B7108F070FE68BB43F6E113E35CAE
:101C0000F3B16CF05DF8204600F068F9204609F069
:101C100073F8154B1B68DB6C93F89C501DB142F6B2
:101C20009533E35C1BB142F69533E55470BD9FF0EC
:101C3000D3FC42F69833E05042F69533E55470BD3C
:101C400041F6987020440BF08BFC43F6741020444E
:101C500097F036FAD5E7A2590721204601F05CFB40
:101C6000CBE700BFFC7C0030FC250030FFF7A6BFAF
:101C700010B5044600F5296029F078FD43F64C13B1
:101C8000E35C133B012B04D944F2F820204490F08C
:101C90006FFA204608F046FA41F698700121204478
:101CA0000DF0DAFF44F23C20012120440BF062F9F0
:101CB000204606F055FD204600F07CF9204606F04F
:101CC00007FD204602F092FA204608F03FFD45F25B
:101CD000602020446DF0A0F84FF6FF71204608F018
:101CE000FBFD10B1204601F041FB2046BDE810404D
:101CF0005BF0E8BB10B506480C4694F089FEDFEDBA
:101D0000057A012020EE270A84ED000A10BD00BFED
:101D1000086F00300AD7233C10B508480C4694F0F1
:101D2000A7FE07EE900A9FED067A0120F8EEE77A0B
:101D300067EE877AC4ED007A10BD00BF086F0030EF
:101D40000AD7233CF8B542F6A23405460F4616469C
:101D50004FF47A714FF4FA522DED068B005FB0EE1E
:101D6000609AB0EE418AF0EE408A2BF0BDFF034648
:101D7000DFED2B0AB0EE480A0B2007EE903A2B530A
:101D8000B8EEE71A2BF04CFF2B5F9FED267AB0EEF2
:101D900040AA07EE903AF8EEE77A87EE878A68EE77
:101DA000288A28EE098AB7EEE87AB7EEC86A27EEE5
:101DB000077BA6EE067BB5EE407BB1EEC79BF1EE4E
:101DC00010FA27D4B7EEC99BB4EEC9AAF1EE10FA07
:101DD00005D5CAEE097A68EEA78A28EE278A9FED14
:101DE000129A28EE090A2FF14BF8F0EE409A28EEED
:101DF000890A2FF15FF929EE800A2EF105FFDFED48
:101E00000B7A20EE270A87ED000A86ED008ABDECEA
:101E1000068BF8BDB0EE470B2FF122FAD2E700BFD8
:101E200000007A4400A08C45D40237399F0CB3459A
:101E300042F61C4307EE901A0344B8EEE70AD3EDCE
:101E4000007A20EE270A704743F66C1370B52DED2B
:101E5000028BC15C11F0010404D09FED1E0ABDECA1
:101E6000028B70BD054642F6CE3662209FED1A1AEF
:101E7000DFED180A2BF0D4FE21464FF4C872A85F9C
:101E8000B0EE408A2BF030FF43F26053A8539FED31
:101E9000127AEA58B2F90E30B2F90A105B1848BF4C
:101EA0000133C3F34F0300EE103A538AB8EEC00A71
:101EB00007EE903AF8EEE77A38EE400A30EE070A7D
:101EC000B0EEC07AB4EEE77AF1EE10FAC5D4BDEC0C
:101ED000028B70BD0000000000007A4410B542F68D
:101EE0003043044645F2C820234420442DED028BA4
:101EF00093ED008A7DF09EF8C30724D545F2D821E2
:101F000045F2D02245F2CC239FED107A21442244A1
:101F10002344D1ED006AD2ED007A93ED008A76EE8B
:101F2000A77A38EE668A67EE877A28EE078A44F643
:101F3000041304F592422344C3ED007A82ED008A33
:101F4000BDEC028B10BDDFED027AF0E70000C84265
:101F50000000000010B442F2EC0342F2F804D2EDAB
:101F6000007A0444034491ED006AD4ED006AD3ED95
:101F7000005A26EEE77A5DF8044B67EEA57AA6EEE6
:101F8000257AE6EE267A81ED007AC2ED007A704776
:101F900042F6CA33C35E2BB183EAE370A0EBE37071
:101FA00080B2704742F6C833C05E0028B8BF4042D6
:101FB00080B2704770B5044682B041F6987043F223
:101FC0002C7501A920440DF0BBF86359984206D046
:101FD000064644F2F820204490F0C0FD665102B05D
:101FE00070BD00BF0F4A13780133DBB2032B1370AF
:101FF00004D800F5844090ED000A704710B50446FF
:1020000044F21C2000232044137095F0F1FB44F2AD
:10201000F41121442CF00CF904F5844080ED000A01
:1020200010BD00BFF925003038B5044644F21C202D
:102030002DED028B204495F0DDFB90ED010A90ED33
:10204000007A0546B7EEC00AB7EEC77A20EE000B5D
:10205000A7EE070BB5EE400BB1EEC08BF1EE10FA18
:1020600028D4204608F034FE40B1B7EEC88BDFED2F
:10207000138AB4EEE88AF1EE10FA07DC44F210237A
:10208000BDEC028B234493ED000A38BDD5ED000A68
:1020900095ED010A2FF1E4F9DFED097A44F21023FE
:1020A00020EE270A234420EE280A83ED000ABDEC27
:1020B000028B38BD2FF1D4F8D3E700BF0000C8422F
:1020C000E02E654200207047704700BF704700BF98
:1020D000704700BF00207047002070470020704705
:1020E00001207047704700BF002070470E4B43F639
:1020F0004C129A5C102A13D801200C4900FA02F203
:10210000114000290BBF502058201021182143F600
:10211000E1129B5C0BB141F0C00040F00100704740
:1021200050201021F3E700BF002600309800010086
:10213000024A42F6A833D05C704700BF0026003048
:10214000704700BF10B5044664F0D2FB054943F662
:10215000C8332046044ACB580621BDE8104064F03D
:10216000CBBA00BF002600308C92150800B50D4890
:1021700083B05FF06DFEB7EE001A90ED000A7C2090
:10218000DFED090A2BF04CFDDFED087A20EE270A7F
:10219000FDEEC07ACDED017ABDF9040003B05DF823
:1021A00004FB00BFAC5F0030000000000000C8422C
:1021B000F0B587B0054610F027FD04469FF00CFAF5
:1021C000237C022B01DC07B0F0BD0646287C61F0C1
:1021D00047FC0746287C62F081FC103087422BD3F5
:1021E000D4ED267A8321DFED165A1022D4ED256A2C
:1021F000002794ED287A67EEA57A9FED126A0E23E8
:1022000036EEC77A287CFDEEE77A019166EE866AA3
:10221000009227EE067A02AA17EE904A8F210296C4
:102220008DED047ACDED036AADF81440ADF816706B
:1022300061F048FC07B0F0BD287C60F0D7FDC2E734
:102240000000C8420AD7233C2DE9F0432DED028B54
:102250008BB004460BF0EEFB03689C4D42F6DC3776
:102260001B6C06469847EB5B8046D8075AD4990703
:1022700000F19F805A0700F1E3801B0704D40BB0E4
:10228000BDEC028BBDE8F08333683046904D0426E8
:102290001B6AD5ED008A277C98479FED8E7A19231B
:1022A000D0ED027A62229FED8C8AC22177EE877A86
:1022B000D5ED065A95ED057A68EE888A95ED036AA4
:1022C00065EE885AD5ED046AF1EE677A26EE086A63
:1022D000009366EE886A384627EE088A019203AAC0
:1022E000CDED047ACDED055A8DED066ACDED076A88
:1022F000CDED038A8DED088A8DF8246061F0E2FB54
:10230000207C61F0ADFB0546207C62F0E7FB1930D4
:102310008542B4D2207C60F069FD0BB0BDEC028B2D
:10232000BDE8F08398ED005A05F589406B4A6221BB
:102330009FED6B7A4FF0010ED0ED056AD2ED004AA9
:1023400025EE075ADFED647A1922D0ED035A90ED9D
:10235000046A64EEA74A90ED007A65EEA75A26EE6D
:10236000276A134627EE277A207C66EEA77A01912A
:102370000092C22103AACDED054A8DED045ACDEDA0
:10238000065A8DED076ACDED087A8DED037A8DF84A
:1023900024E061F097FB207C61F062FB8146207CA9
:1023A00062F09CFB19308145B4D3EB5B99077FF554
:1023B00061AFD8ED015A4FF0620E4A4A19239FEDE2
:1023C000487A0227DFED447AC22165EE875A92ED02
:1023D000005A12ED067A12ED026A25EE275A52EDE6
:1023E000034A52ED016A26EE276A64EEA74A207C72
:1023F00066EEA76A03AA67EE277A8DED055ACDED42
:10240000064ACDED045A8DED076ACDED086ACDED93
:10241000037A8DF824708DE8084061F053FB207C2E
:1024200061F01EFB0746207C62F058FB19308742A2
:10243000FFF470AF42F6DC33EB5A5A077FF51DAF5D
:10244000D8ED025A4FF0620E274A19239FED247AE5
:102450000327DFED217AC22165EE875A92ED005AFB
:1024600012ED067A12ED026A25EE275A52ED034A62
:1024700052ED016A26EE276A64EEA74A207C66EEDA
:10248000A76A03AA67EE277A8DED055ACDED064AB5
:10249000CDED045A8DED076ACDED086ACDED037AD6
:1024A0008DF824708DE8084061F00CFB207C61F011
:1024B000D7FA0746207C62F011FB19308742FFF4FF
:1024C00029AF42F6DC33EB5AD7E600BF00260030D6
:1024D000186E00300AE81C410AD7233C986A003085
:1024E000E02E6542586B0030186C0030014802F055
:1024F000A9B800BF0026003010B508460C4614F0FD
:1025000059FE08B9042010BD2146024803F06EF9B7
:10251000002010BD00260030014801F039BE00BF88
:1025200000260030014801F0BDBD00BF002600308C
:1025300070B58B8B88B00C46732B51D00CD9D12B36
:1025400017D0B3F5967F3ED0B22B23D0214608B0EA
:10255000BDE8704069F00EB9112B2CD0152BF5D1C8
:10256000022209213C4806F00DF808BB042008B0FF
:1025700070BD01F10C066D460FCE0FC596E8030045
:1025800085E80300344894E80E0007F005FD0028B4
:10259000ECD00DE0D1ED017AF5EEC07AF1EE10FA53
:1025A000E4DD9FED2E0A2E4827EE800A94F0ACFB66
:1025B000002008B070BD02221021274805F0E2FF7C
:1025C0000028D3D0F4E7244843F6E113C35C002B82
:1025D000CCD00222032105F0D5FF0028E8D1C5E7C1
:1025E00091ED000AB5EEC00AF1EE10FABEDBDFEDA8
:1025F0001D7AB4EEE70AF1EE10FAB7D8D1ED037AFE
:102600009FED197AF0EEE76AF4EEC76AF1EE10FA80
:1026100014D5FCEEE77A94ED027A0F48D4ED010A66
:10262000CDED067AFDEEC77A9DF81820CDED077A3C
:102630009DF91C1003F06CF8002098E7B0EE670AD3
:10264000F7EE000A2BF08AF900288FD094ED000AEB
:10265000D4ED037ADDE700BF002600300000C84259
:10266000086F00300000B4430000003408B562F089
:1026700099FE40F6C51200231043194308BD00BF60
:10268000054A43F64913D35C13F0010301D1184600
:10269000704762F0BBBC00BF00260030054A43F61D
:1026A0004913D35C13F0010301D11846704762F05F
:1026B000EFBD00BF0026003010B5044614F0A4FDA5
:1026C000204610BD38B5F7EE000A91ED050A0C461C
:1026D00005462BF043F938B169F0C4FF054A0621DD
:1026E00060F0C6F8032038BD21462846BDE83840D2
:1026F00066F068BF989215080B7ADB0706D5044888
:1027000042F2D402CB6882581344CB60704700BFBA
:10271000002600300C4843F6E11310B5C45C3CB110
:1027200069F0A0FF094A062160F0A2F8042010BD5C
:10273000FFF70EFA08B9042010BD10F065FA012168
:1027400010F06AF8204610BD00260030C09215082F
:102750000B4B43F66C129A5CD10703D444F265111B
:10276000595C09B10520704712F00E0FFAD143F6FB
:10277000E1129B5C002B14BF04200320704700BFB4
:10278000002600300C207047024A43F64C13D05C00
:10279000704700BF00260030F8B590F8CF510446CE
:1027A00045B1207C62F09AF9207C002560F01EFB88
:1027B0002846F8BD806A03681B6A98470646207C55
:1027C000B6F5005F1BD362F089F907206BF02AFD94
:1027D000F6EE007AB7EE007A85492046E0EE277AD9
:1027E00037EE670A65F0E6FE94F8CF316BB1207CD6
:1027F00062F074F9207C60F0F9FA2846F8BD62F0C6
:102800006DF91230B042E0D9CEE7A06A03681B6AC6
:1028100098470646207CB6F5005F80F0D08062F0D5
:102820005DF91230B042E5D806206BF0FBFCF6EE05
:10283000007AB7EE007A6F492046E0EE277A37EE4D
:10284000670A65F0B7FE94F8CF51002DA9D1A06AB0
:1028500003681B6A98470646207CB6F5005F80F047
:10286000B18062F03BF91230B0429DD8624E44F222
:10287000D01362492046F358002BB8BF03339B1096
:1028800000EE103AB8EEC00A65F094FE94F8CF312D
:10289000002BACD1A06A03681B6A98470746207CCE
:1028A000B7F5005FC0F0918062F018F93B206BF043
:1028B000B9FCF6EE007A52492046E0EE277AB0EEF7
:1028C000670A65F077FE94F8CF51002D7FF469AF69
:1028D000A06A03681B6A98470746207CB7F5005F2B
:1028E0007AD262F0FBF81230B8423FF65DAF3C207E
:1028F0006BF098FCF6EE007A42492046E0EE277A2B
:10290000B0EE670A65F056FE94F8CF31002B7FF4E5
:102910006EAFA06A03681B6A98470746207CB7F52C
:10292000005F5CD262F0DAF81230B8423FF662AF74
:10293000354B2046354993ED000A65F03BFE94F88F
:10294000CF51002D7FF42DAFA06A03681B6A984712
:102950000746207CB7F5005F44D262F0BFF8123022
:10296000B8423FF621AF44F2DC1329492046F35C1C
:1029700000EE103AB8EE400A65F01CFE94F8CF3134
:10298000002B7FF434AFA06A03681B6A98470746A0
:10299000207CB7F5005F28D262F0A0F81230B84270
:1029A0003FF628AF44F2DD1320461A490125F35CB7
:1029B00000EE103AB8EE400A65F0FCFDF8E662F071
:1029C0008DF831E762F08AF850E762F087F812304C
:1029D000B8427FF66BAF0DE762F080F887E762F0F0
:1029E0007DF8A5E762F07AF8BDE762F077F8D9E7FD
:1029F000DC921508E492150800260030EC921508C8
:102A0000F892150800931508D86700300893150848
:102A1000149315082093150828290AD0402908B5D1
:102A200003D1FFF7B9FE012008BDBDE8084067F0FB
:102A3000A1BB0120704700BF034A43F64813D05C96
:102A4000C0F30010704700BF002600302DE9F041B0
:102A50002DED048B9FED3A8A8EB09FED3A0A044625
:102A600039482FF04BFF61EE087A384860EE089A3B
:102A70008DED040A20EE889AFDEEE77ACDED050A89
:102A80008DED061A94F81080CDED037ABDF90C6037
:102A900093F0EEFF07EE900A2C48F8EEE77A67EE27
:102AA000887AFDEEE77ACDED037ABDF90C5093F00C
:102AB000AFFF20EE080ADFED267AB4EEE70AF1EE6A
:102AC00010FA35D44FF6FF77224944F24863224A80
:102AD0000024C85803689B6892ED008B984790EDDE
:102AE000027ADFED176A1A22B7EEC77AB72300928F
:102AF000404601933E2138EE478B134607AACDEDA1
:102B0000079A8DED089AB7EEC88BADF83060ADF836
:102B10003250ADF8347028EE268A0A940B948DED6D
:102B2000098A60F0CFFF0EB0BDEC048BBDE8F081E8
:102B3000FCEEC07ACDED037ABDF80C70C4E700BF9F
:102B40000AD7233C9F0CB34534690030086F00302E
:102B500000FF7F4700260030986E00302DE9F043DB
:102B60000C462DED028B4B7A9BB0897AE27A43EAD0
:102B7000012343EA0243542B00F00C81054626D979
:102B8000872B7DD8862B1DD2562B28D1E67835226F
:102B900000210AA8964228BF164632F139FD0AA83C
:102BA00004F10C01324632F1EFFCBE4A43F64C13FD
:102BB000D35C042B00F0BC81032B00F0B381022B0B
:102BC00000F07E811BB0BDEC028BBDE8F083452B8D
:102BD00000F0A680522B0BD0012B00F086802146FE
:102BE000284669F08BF91BB0BDEC028BBDE8F08381
:102BF000E578272200210AA8954228BF154632F120
:102C000007FD04F10C010AA82A4632F1BDFC9DF82B
:102C10004E60750600F1EB8116F0C00FD2D1DFEDEA
:102C2000A20A40F23F20B7EE001A9DED120A2AF0E8
:102C3000F7FFF6EE000AB0EE408A2AF08FFE002879
:102C400040F0F281F6EE007AB4EEE78AF1EE10FA87
:102C500040F3ED8138EE678A944B93ED000A38EE2D
:102C6000088A28EE000A0B9D06A90C9C0D9A0E9B63
:102C70008C48069507940892099303F0C3FDA1E7D9
:102C8000F32BACD1E5783D2200210AA8954228BF5C
:102C9000154632F1BDFC04F10C010AA82A4632F1B6
:102CA00073FC0A9D0B9E0C9C35B92EB924B90121E9
:102CB0007C4801F06DFA85E706A813F0DDFD7C4A3B
:102CC000E31706A982FB042476480895C3EBA40405
:102CD0000996079401F0C2F900287FF473AF06A9A2
:102CE0000122704801F0DEF96CE7E5781F2200212F
:102CF0000AA8954228BF154632F18AFC04F10C015E
:102D00000AA82A4632F140FC0B9B9C007FF55AAF83
:102D10000C9B98003FF556AF664894F047FE51E78C
:102D2000604D42F6A833E279EB5E9A427FF44AAFF7
:102D3000E278002304F10C010AA80B2A0B930A93F2
:102D400028BF0B22CDF82F3032F11EFC42F6A633FD
:102D50009DF83220EB5E9A427FF434AFBDF92E40ED
:102D60002846BDF83060BDF92A20BDF92810BDF90C
:102D70002C308DE8500006F0A9FD9EF02DFC43F6A6
:102D80005813E85069F06EFC04469EF025FCC4F828
:102D9000A80117E7E578352200210AA8954228BF47
:102DA000154632F135FC0AA804F10C012A4632F12D
:102DB000EBFB3C4A43F64C13D35C042B08D0032BAB
:102DC0007FF400AF43F64843D35C032B7FF4FAAEA5
:102DD0009DF85C60F41F012EE4B202D0022C3FF695
:102DE000F1AEBDF85820002112F0070502F03808B6
:102DF00002F4E07703910491059122D19FED2F6AAF
:102E0000A6F10803DDED0C6A9DED0D7A012BDDEDD9
:102E10000B7A66EE866A27EE467A67EE867ACDED05
:102E2000046A8DED057ACDED037A40F23481022CEF
:102E300000F21581204894F0DBFC014603A82FF036
:102E40007DFD0022069207920892B8F1000F40F033
:102E5000E0809FED1A6AA6F10803DDED0F6A9DED93
:102E6000107A012BDDED0E7A66EE866A27EE467A41
:102E700067EE867ACDED076A8DED087ACDED067A9C
:102E800040F20381003718BF0127002D40F0EF808A
:102E9000002F00F0EC8006AA03A9024803F02EFCE4
:102EA00090E600BF0026003000000000286F0030D0
:102EB00067666666085C00301C6800300000C84227
:102EC000BDF85820510700F0BE8002F0380602F429
:102ED000E07401220023002C0CBF002202F001024A
:102EE000039304930593002A3FF46CAE002E7FF405
:102EF00069AE1FED0E6A06A9DDED0E6A9DED0F7A33
:102F0000DDED107A66EE866A27EE067A654867EE92
:102F1000C67ACDED066A8DED077ACDED087A03F01D
:102F2000D5FB4FE643F64843D35C032B7FF44AAE10
:102F3000BDF8583013F0070203F4E07418BF012203
:102F400013F0380614BF012700275B07C2D1DDF854
:102F50002C800023DDF830904046039349460493CB
:102F600005932BF0E7F900283FF42CAE284602AA7F
:102F70009DF85C1069F05EFB00283FF423AEDDEDA8
:102F80000D7A41469FED488A4A46029B06A867EEA5
:102F9000887A0093FDEEE77A17EE903A13F084FCFE
:102FA00006A803A913F014FE00283FF40BAE00346A
:102FB00018BF0124002E65D1002C3FF403AEDDEDD7
:102FC0000E6A06AA9DED0F7A03A9DDED107A66EE72
:102FD000886A27EE087A334867EEC87ACDED066A2C
:102FE0008DED077ACDED087A03F088FBEAE59EF0D7
:102FF000F3FA0AAC2B4B45F27C3203F5A745985007
:103000000FCC0FC50FCC0FC594E8030085E8030073
:1030100002E6002D7FF4D6AD002F3FF4D3AD03A917
:10302000204803F0DDFCCDE59FED200A1BE6204B98
:1030300038EE678A93ED000A38EE088AB0EEC00ACF
:1030400028EE000A0FE6DFED187A9DED0D7A194B98
:1030500027EE277AB7EEC77A83ED007BB2E59DEDC8
:10306000050A104807F076F88DED050AE9E6002D0F
:103070003FF4A8AD002F3FF4A5AD06A9094803F021
:1030800025FB9FE5002CC7D19CE507AA06A90548AA
:10309000FEF760FFF6E604AA03A90248FEF75AFF0E
:1030A000C5E600BF002600300000C8420000000056
:1030B0002C6F0030986E0030F6EE007A91ED007AB9
:1030C000B4EEE77AF1EE10FA01DC0420704708B59F
:1030D000012205210248FEF70FFB002008BD00BFBA
:1030E000686700300020704700207047002070475C
:1030F00001207047FA207047024A42F6A633D05C9E
:10310000704700BF00260030F8B5016A43F64C1541
:10311000C469466A41F4E053254A44F4F84703621F
:1031200046F4E053C7614362555D102D07D801276F
:10313000DFF888E007FA05F515EA0E0F31D143F6FE
:103140004911515CC90707D5016A47F6084541F0A6
:10315000080125430162C56123F0080343F670119D
:103160004362525C920702D543F008034362114B5D
:103170001B78DB0714D5C269036A0F4942F48072D9
:1031800043F480730968C261036249B1044608468A
:10319000192158F0C5FD18B1636A43F48073636266
:1031A000F8BD41F4F84146F4F84301624362C6E7D2
:1031B00000260030405C00309C7D00309C02010005
:1031C00070B50D4616464FF4E87014F017F8324605
:1031D0002946044662F0F2FB014B2046236070BD95
:1031E000E893150808B590F88C30994203DC243137
:1031F00050F8210008BD5AF059FD16224FF48021E5
:103200005AF002FD002008BD08B590F88C309942B4
:1032100003DC243150F8210008BD5AF047FD0F228D
:103220004FF480215AF0F0FC002008BD704700BF29
:10323000704700BF70B5064644F234308AB09FED47
:10324000160A304441F698742FF058FB0AAACDEDC7
:10325000080A01AD8DED091A04AB8DED070A34445F
:1032600012E9070085E807009DED030A83E80700DF
:103270002AF06EFC294620468DED030A09F0D8FCA1
:103280000CF0BAFF0CF0ACFF204609F03DFC2046E4
:1032900009F068FD0AB070BD9F0CB34530B500233E
:1032A00089B00622A32595210446019306938DF843
:1032B00006200293039304930593CDF81B308DF8F9
:1032C00004508DF805109EF08FF943F65023CDF889
:1032D000070004F56950CDF80B1023441B68CDF8A6
:1032E0000F305EF0B5FD43F6C46243F65423056823
:1032F00043F2705022442344204401A914681B2245
:103300001B68CDF81350CDF81740CDF81B305BF09B
:10331000F7FE09B030BD00BF70B50D4684B04FF662
:10332000FF711446064607F0D7FAE8B100230422DD
:10333000A3209521009301938DF80220029303931B
:103340008DF800008DF801109EF04EF9CDF80300C5
:1033500043F27050CDF807101022694630448DF8C2
:103360000B5003945BF056FF04B070BDF8B590F8B5
:10337000F51543F670130446CD00C25C6B1A02F0DB
:10338000010200EBC30393F81D0600284ED093F80A
:103390001E0600284DD1BAB16B1A04EBC30393F893
:1033A0001E0600284BD143F67015635D60F30003E1
:1033B00063555CF0A5FC635D122113F0010F0CBF97
:1033C000042200225CF05AFC04F5E76743F670150E
:1033D00094F88D1A3846665D16F05CFEC0B2C6F3EE
:1033E0008006C0EB401004EB800090F88937B342B0
:1033F0002BD094F88D1A384616F04CFE635DC0B29F
:10340000C0EB401004EB800090F8892762F3820340
:1034100063555CF075FC635D032113F0040FBDE898
:10342000F8400CBF042200225CF028BC002ABAD16C
:10343000CAE793F81F36002BADD0002AC4D1691A11
:1034400004EBC10191F81F06ADE7F8BD2DE9F0418D
:1034500024268AB0154607468846324601A8002130
:103460001C4632F1D5F895220723A3218DF80520BB
:103470008DF806308DF804109EF0B6F8CDF80700F0
:1034800043F27050D5F800C03246D5F804E0384415
:103490002668AF68CDF80B1001A96568A3688DF8A0
:1034A0000F80CDF810C0CDF814E006970796089568
:1034B00009935BF025FE0AB0BDE8F08110B543F634
:1034C0004C13044642F6943243F27050E15CA25C25
:1034D00020445BF0C5FF41F6987020440AF01AFAC8
:1034E00004F53170BDE810401AF0EEBA00F5555001
:1034F0009622024930305CF09BBA00BF4495150813
:10350000F0B53325044600212A462DED028B8FB0FD
:103510009FED498ADFED498A01A832F179F8A322AB
:1035200095238DF804208DF805309EF05DF844F267
:10353000A43244F2A833CDF8070043F6AC1022447D
:1035400023442044CDF80B1012681B68CDF80F20DF
:10355000CDF813305EF07CFCF0EE480A90ED000AE6
:10356000B7EE001A7C202AF05BFB43F61C2310EE1A
:10357000102AB6EE061A2344F4EE000A3420CDF8E1
:10358000172093ED000A2AF04BFB44F6980344F20F
:103590001C2010EE102A23442044CDF81B2093ED6C
:1035A000007BB7EEC77BC7EE287A17EE903ACDF8CE
:1035B0001F3094F021F980EE280A94F8F53544F292
:1035C000CC1244F6B40004F2E451C3EBC30322442A
:1035D000204401EBC30344F2C81192ED007A2A465D
:1035E000D0ED007A43F24260DB6ABDEEC77AFDEEB1
:1035F000E77A34F800E0CDF8273043F2705018EE47
:10360000103A675A17EE106A17EE905ACDF82F301D
:1036100001A92044ADF82B60ADF83350ADF82DE092
:1036200010EE103AADF83570CDF823305BF068FD40
:103630000FB0BDEC028BF0BD000000000000C842DE
:10364000704700BFF8B5074679F042F8114E07F110
:103650002C0007F148046AF0A5F807F532750E4B07
:10366000FB62204669F074F844F8286BA542F8D153
:1036700028466AF07DFE07F29C709EF01FF807F264
:10368000E4700CF0DDFD3846044956F065F8384624
:10369000F8BD00BF60C8150828D91508C4C81508AA
:1036A00030B50F4D8DB00FCD6C460FC40FCD0FC48C
:1036B00095E80F0084E80F0068460022012156F0CB
:1036C00037FD04A80022012156F032FD002201211D
:1036D00008A856F02DFD6AF039FE0DB030BD00BFD0
:1036E0004C8A1508F8B5044655F030FA002800F069
:1036F000B28041F698735D4A42F6A4370021234414
:103700001568E61993F880206FF3820283F8802011
:10371000E86C25F0D3FD304655F090FE002840F0CF
:103720009580A86B524903681B6898476AF0B6FFFA
:1037300054F0D6FD42F6A4329FED4E7A0121A35EED
:103740003046A152013B07EE903AF8EEE77AF0EEF0
:10375000E77AF4EEC77AF1EE10FA58BF002155F07F
:10376000BBFDA86B444A036844491B6898479DF019
:1037700031FF074656F024FFAD6B2B681E689DF0A5
:1037800029FF3F49C21B2846B047052100223D487A
:1037900056F0CEFC57F046FA3B4A2046138843F0D9
:1037A00008031380FFF77CFF9FED380A384857F075
:1037B00041FA9FED380A384857F03CFAB0EE000A5B
:1037C000364857F037FA9FED360A364857F032FA46
:1037D0009FED350A354857F02DFA9FED350A3548EB
:1037E00057F028FA9FED290A334857F023FAB7EE2D
:1037F000000A324857F01EFAB0EE080A304857F077
:1038000019FA9FED300A304857F014FAB0EE080A62
:103810002E4857F00FFA9FED2E0A2E4857F00AFA5D
:103820009FED2D0A2D4857F005FAB1EE0C0A2C48F1
:1038300057F046FAB2EE000A2A4857F041FAB6EEBF
:10384000000A2948BDE8F84057F03ABAE35F012B77
:103850007FF467AF8BE7054B24491B68986B0368BF
:103860001B68984722489DF08DFE00BFFC25003064
:1038700064CA15080000003488CA150890CA1508E3
:103880005CC9150874C81508887D00300000000068
:1038900070C915080000E04384C9150894C91508CB
:1038A00000D8D647A0C9150800808944B0C91508BA
:1038B00000007A44BCC91508D0C91508DCC9150830
:1038C000E8C915080000C842F8C9150808CA150853
:1038D0000000404418CA15080000484228CA1508CC
:1038E00034CA150844CA150854CA15083CC9150835
:1038F0004CC9150800207047002070470F2904DCD0
:10390000282303FB01001C3070470020704700BFD4
:10391000012070470368DB6E184700BF00F0D6BE79
:1039200001F0D4B800F070BC04F094BBF8B50646C2
:1039300043F6DC00354943F230733058344A316085
:10394000F25008B113F05CFC43F22C63F05810B154
:1039500003685B68984742F684332E49F218316059
:1039600012793AB9F4582CB1204625F033FD20469F
:1039700013F04AFC41F63C2741F6542406F5F65074
:10398000374434448DF064F8083C23793BB925680A
:10399000284625B125F01EFD284613F035FCA74228
:1039A000F2D141F2387006F6B86506F60C74304470
:1039B0006BF01AF8184BC6F8903A1C3C20465DF0A4
:1039C000C1FFA542F9D106F6345706F67C54083CEF
:1039D00023793BB92568284625B125F0FBFC28460C
:1039E00013F012FCA742F2D10C4A96F8B831C6F88F
:1039F000D42043B9D6F8B4412CB1204625F0EAFCD6
:103A0000204613F001FC3046F8BD00BF688F150852
:103A1000F8B91608149E1608AC4316080CF91508D8
:103A20002DE9F04FE24B41F69878044600F1080684
:103A300080440025DFF8E0932DED028B40F8043B35
:103A400087B071F055F99FEDDB1ADFEDDB0A04F169
:103A500028009FEDDA0A82F0C7F804F1500079F0EF
:103A6000F9F8D74BD74930461E6055F075FE04F182
:103A7000900012F0C1FAD44B049404F5067005933B
:103A800006AB13E9060058F08BFB04F5317019F012
:103A900083F904F2E4500DF071FD04F5E76016F0CF
:103AA000C9F804F5296026F06BFF41F2F03020449C
:103AB00071F0EAF841F2B040204457F061FA41F267
:103AC000387020446AF078FF41F27470204410F09E
:103AD000D9FB41F63000204483F044FB04F5F65056
:103AE0008CF0A2FF41F6D860204458F025FF41F643
:103AF0003070204471F054FA41F6387341F6487042
:103B0000B24AE118E5542044116052F0E3F8294626
:103B100040460AF05BF942F27860204482F090F966
:103B200042F28460204475F0F5FC42F2B06020441B
:103B300082F0D6FE42F68410204489F099FD42F6C8
:103B40009C20204488F0F4FD42F6BC2020448BF0F9
:103B5000A1FC42F6343020448CF0B6FA42F694339D
:103B6000D9F80070E554002F40F0438242F6A435A6
:103B70009749204643F2586655F0EEFD2544954B93
:103B80002644C9F8004005F1520023604FF6FF7B40
:103B900093F0B4FE05F1540093F0B0FE05F1560029
:103BA00093F0ACFE05F1580093F0A8FE05F15A0021
:103BB00093F0A4FE04F5305093F0A0FE05F15E00F2
:103BC00093F09CFE05F1600093F098FE05F1620011
:103BD00093F094FE05F1640093F090FE05F1660009
:103BE00093F08CFE05F1680093F088FE05F16A0001
:103BF00093F084FE05F16C0093F080FE05F16E00F9
:103C000093F07CFE05F1700093F078FE42F63840A8
:103C100043F2426542F6A239204443F2BC7AFFF7F0
:103C200011FD42F6D03143F27050A1442144A24428
:103C300020445BF013F943F20860204493F07CFECB
:103C400004F5595243F22C6343F2446143F2486055
:103C5000E7501378204467F3000367F341031370C0
:103C6000675367505EF078F843F26C6343F270621A
:103C70005949E45043F27C60A15043F274635749C0
:103C800043F27862E45004F55A53245043F29460AE
:103C9000A150534A20441A6012F0EEFD43F2AC608A
:103CA000204412F0E9FD43F2C460204412F0E4FD28
:103CB000A6F87C70A6F87EB006F18400A6F880B065
:103CC00012F0DAFD474B304647491E6055F044FD7F
:103CD00043F23073A6F834B0A6F84CB043F22C721D
:103CE000E618424906F12805E150A7502846143548
:103CF00064F0CAF95545F9D143F6DC0700231E22CA
:103D000040F2CC60E519AA80EB802B8113F070FAA9
:103D1000E05105F10C009CF02FFD43F62C102044DF
:103D20009CF02AFD324B1A68002A00F0608143F6AD
:103D3000741643F64C1343F230722E48A519132122
:103D4000A0504FF4F572E15428464FF4C87194F036
:103D500035FF294B294A2A49D3F800A0A151C5F8BB
:103D60005422C5F85822BAF1000F40F04881F7EE0E
:103D7000008A9FED248A244A28462449A25144F20D
:103D80006816C5EDB38A85EDB48A1D6055F0E4FC74
:103D900043F648421E4F43F6494102AB04F802A0E5
:103DA00043F660401B4A04F801A0204436E000BFFF
:103DB000149E160800008C42295C8F3D000048428A
:103DC000887B00300CF31508153902086089003033
:103DD0002C9D1608688F15081D3902082139020824
:103DE00025390208B47C0030CC4F1608F8B9160803
:103DF0008C8600300C951508EC8F00300494160862
:103E00003C14170800000000C00E17088C0D17089E
:103E100029390208248F1508D47D00304FF4007131
:103E20000397029444F22027009227440CCB0FF012
:103E300003F8A01998F0FEFA724A44F2DD1344F236
:103E4000E010A25144F23C2604F803A0204412F0F2
:103E500013FD44F21C2044F2F01E4FF0010C44F21A
:103E6000F41144F22C2304F80EC004EB000B21449F
:103E70002344DFF8B4E1264481ED008A524681ED07
:103E8000018AB0EE480A81ED028A414644F800E01A
:103E9000304687ED008A44F2F82A87ED018A87EDE3
:103EA000028AA24483ED008A83ED018A83ED028AAF
:103EB000CBF81C8009F0F2F894ED990ADFED527A04
:103EC000B0EEC07AB4EEE77AF1EE10FA09D5B4F9A3
:103ED0005A3207EE903AF8EEE77A88EEA70A84EDB8
:103EE000990A4A462B46314650468DF08FFF94ED95
:103EF000990ADFED457A44F23867B0EEC07A27447C
:103F0000B4EEE77AF1EE10FA0BD5B4F95A32B7EE07
:103F1000007A07EE903AF8EEE77A87EE270A84ED0A
:103F2000990A2B465A463146CDF800A038468EF005
:103F30007FF944F608103B4632465946CDF800A0BA
:103F4000204492F0A5FD45F2A4103B463246594666
:103F5000CDF800A0204492F00DFB45F2F8103B464E
:103F600032465946204491F05FFF45F260202044DC
:103F70006AF080FE45F2C82020447AF0D7FF45F26F
:103F80007C302C220021204431F142FB1F49204A81
:103F900045F2A8300B782044116043B1002301336F
:103FA0009BB203EB430211F83220002AF7D1194FDC
:103FB00019493A680B80FAB943F6701643F66C1546
:103FC00045F2C43C45F2C83EA15D635D386041F0F6
:103FD0000501204643F0010344F80C20A15544F8A4
:103FE0000E20635507B0BDEC028BBDE8F08F1E605C
:103FF0009DE60A489DF0C6FA09489DF0C3FA0948B3
:104000009DF0C0FA248D15080000003498CA1508E8
:10401000987D0030587D0030947D0030B8D9150867
:10402000F0D91508CCD91508200C170810B59CF04C
:1040300067FE064C064B18602046FFF7F1FC204651
:10404000044A0549BDE810402CF138BD0026003077
:10405000FC250030A02401302D39020830B585B090
:1040600004460D46684612F007FC41F69870694612
:1040700020440AF05FF960B16846294612F0CCFD91
:104080009FED067BB4EEC70BF1EE10FACCBF01201A
:10409000002005B030BD00BFAFF30080000000007D
:1040A000006AE8402DE9F04341F698748BB006466B
:1040B0000D4604446846904612F0DEFB69462046F1
:1040C0000AF038F920B9002528460BB0BDE8F08386
:1040D00094F848312946204603F0010707F012F80A
:1040E00005460028EFD06FB1B8F1000FECD094F87E
:1040F0004831454643F00203284684F848310BB066
:10410000BDE8F0835BF0FCFD19215BF089FD4FF405
:104110008071304606F0E0FB0028E5D043F2586994
:1041200006A812F0A9FB3946B14404AA48462FF06C
:10413000A3FC0028D8D043F2705004AA494630446A
:104140005BF0C0F9B8F1000FD1D1BDE730B505463D
:1041500089B041F6987468462C4412F08DFB04A88F
:1041600012F08AFB204669460BF07AFE08B909B0C6
:1041700030BD04A920460AF0DDF80028F7D0059BE1
:104180006946002228460193FFF78CFF09B030BD35
:1041900030B585B004460D46684612F06DFB41F619
:1041A0009870694620440BF05BFED0B194F8F53569
:1041B00004F2E450DDED017A2A46C3EBC3039FED20
:1041C0000A7AF8EEE77A694600EBC3032046D3ED9E
:1041D0000B6AE6EEC77AFDEEE77ACDED017AFFF7DE
:1041E00061FF05B030BD00BF0000C84242F2E003ED
:1041F0001B5CDB0707D443F6E113C15C09B9FFF789
:10420000C7BFFFF7A3BF7047084A10B5137804462D
:1042100043F08003137001F065FC00B110BD20462F
:1042200008220221BDE8104004F0ACB9187D00302E
:10423000F0B501F1080387B00E46054602AC0FCB7E
:1042400084E80F00049B0BB9059B7BB1039BC3B1B2
:1042500043F65442002043F652432146A8502846D4
:10426000B288EA5201F0B6F907B0F0BD44F2EC139F
:1042700044F2E812EB58AA580593039B0492002BD2
:10428000E6D144F2E017204612F054FB01AA2F4475
:104290000146384612F05AFB58B944F2E413384646
:1042A000EF5812F047FB39460246204612F024FB35
:1042B000CEE7019F2046F4E7F0B58DB00D460646E7
:1042C00004AC204612F0D8FA2B690BB96B6973B3B2
:1042D00005F108010027224D0FC984E80F0044F2C0
:1042E000E01003AA03212F70304412F02FFB60B9B5
:1042F00044F2E41301222046F15812F0FDFA21465F
:10430000304601F067F90DB0F0BD08AA0321204640
:1043100012F01CFB0028EBD003220399204612F078
:10432000EBFA2146304601F055F90DB0F0BD012001
:1043300008AD0B4F44F2EC1244F2E811B258715838
:1043400000903870284612F0AFFA95E80F0084E824
:104350000F002146304601F03DF90DB0F0BD00BF21
:10436000D079003070B508318CB0054604AC0FC967
:1043700084E80F00069B0BB9079B3BB3059B2BB151
:104380002146284601F026F90CB070BD44F2E01633
:10439000204612F0CFFA08AA2E440146304612F009
:1043A000D5FA80B944F2E4133046EE5812F0C2FA5E
:1043B00031460246204612F09FFA2146284601F077
:1043C00009F90CB070BD089E2046EFE744F60810CE
:1043D000002301A9284401930293039392F0E8FB80
:1043E000022201A908A812F003FE0A9A0B9B06926A
:1043F0000793C3E7F0B501F1080387B00E46054601
:1044000002AC0FCB84E80F00049B0BB9059B6BB18A
:10441000039BB3B1B388214628461B0A00EE103A2D
:10442000B8EE400A01F050FE07B0F0BD44F2EC13C4
:1044300044F2E812EB58AA580593039B0492002B10
:10444000E8D144F2E017204612F074FA01AA2F4492
:104450000146384612F07AFA48B1019F204612F020
:1044600069FA02463946204612F046FAD2E744F28B
:10447000E4133846EF5812F05DFA024620463946FA
:1044800012F03AFA5BF03CFC022215215BF0F6FBDD
:10449000C0E700BF70B582B004460D469DF09CF8A1
:1044A00043F65C43E050D5ED027AF5EEC07AF1EECA
:1044B00010FA18DD9FED147A43F6584267EE877ABA
:1044C000FCEEE77A17EE903AA350104D062143F226
:1044D00030700F4AA5FB03532044CB4002B0BDE827
:1044E00070405EF0C5B9002678F07AFD95F90E307F
:1044F00095F90D2095F90C10009678F081FC43F6A3
:1045000058420346A050E0E700007A44D34D6210C1
:104510005CDA1508DFED0A7A4FF47A7291ED041A2D
:10452000D1ED030A91ED020A21EE271A898860EE87
:10453000A70A20EE270A02FB01F102F0AFB900BF83
:104540000000C84244F60C131B5CDB0726D5164A54
:1045500070B543F6544653780D46044643F00103C4
:1045600081595370E1B19DF037F843F654430F4938
:1045700043F65242E358A25AC01AA1FB0030B2EBF4
:10458000901F01D9002070BD43F230702B88084A7B
:10459000062120445EF06CF9012070BD00207047B8
:1045A0009DF01AF8A051DEE7187D0030D34D62105F
:1045B00094DA1508F0B5144D87B02C785CB1012C55
:1045C00002D0012007B0F0BD44F60C13185C00F0D7
:1045D000010007B0F0BD44F60C131B5C13F001039F
:1045E00002D1184607B0F0BD012706464A692346A6
:1045F000096902A8009712F057F9304602A900F0A5
:10460000E9FF2F702046DDE7D079003044F2F01347
:1046100010B5C35C0446032B02D0032101F054F80B
:1046200041F6B07244F20823A058E358C01A29F0AA
:104630003FFA0028B8BF4042C828CCBF0020012064
:1046400010BD00BF08B543F64C13C35C042B08D063
:10465000032B01D0002008BD43F64843C35C032B65
:10466000F8D14B88102B0DD0732BF3D10B464A7C1D
:1046700091F91010D3ED030A93ED020A01F048F806
:10468000012008BD0831BDE8084002F059B900BF5B
:1046900038B58B88012B14D00B691BB94B690BB94A
:1046A000CB6873B101F1080405462146FFF7D6FC3B
:1046B00000B138BD024621462846BDE83840FFF724
:1046C000F1BC0021BDE83840FFF762BDF0B50C46F3
:1046D00083B04FF48071064606F0FEF8A8BB94ED57
:1046E000037AF8EEC77AF5EEC07AF1EE10FA0DDD36
:1046F000B8EEC77B43F230707C4A042130448DED24
:10470000007B5EF0B5F8002003B0F0BD04F10807AF
:10471000384612F00FF90128054631D163885D2B28
:1047200000F0BA801BD9B22B00F0A18047D9C92B69
:104730003FD04CD9CD2B00F08C80DE2B45D13046BC
:104740002146FFF7E7FE0120DEE743F2586143F21E
:1047500070502246314430445AF0B4FEBFE7132B68
:1047600000F0A0801AD9152B00F0B280C0F0A8800C
:104770005C2B2AD1A388002B40F0B0800120C3E736
:10478000384612F0D7F85A4A43B243F23070042147
:1047900030445EF06DF8002003B0F0BD112B3ED028
:1047A00037D8102B11D130462146FFF741FD28465E
:1047B000AAE73046394601F019F82846A4E7722BDB
:1047C00019D0732B0BD0702B2FD000209CE7B32B6C
:1047D000FBD130462146FFF75BFF284694E7304681
:1047E000627C94F91010D4ED030A94ED020A00F0F3
:1047F0008FFF284688E7D4ED027A44F214239FED18
:104800003D7A67EE877AFDEEE77A17EE902AF2504E
:104810007AE730462146FFF7EDFD284674E730463B
:104820002146FFF79FFD28466EE79CF0D5FE44F237
:1048300018229FED317A44F21423B0502846D4ED6B
:10484000027A67EE877AFDEEE77A17EE902AF25049
:104850005AE745F2602094ED041AD4ED020A304480
:1048600094ED030A81786AF001FB28464CE7D4F8FE
:10487000093007EE903AF5EEC07AF1EE10FA7FF7C4
:1048800043AF9FED1C0A44F6081027EE800A30441F
:1048900092F03AFA284637E730462146FFF7FAFD0C
:1048A000284631E721463046FFF75CFD43F6544287
:1048B000002143F652432846B150A288F25223E722
:1048C00042F2D0013046314400F084FE28461BE716
:1048D00030462146FFF7F0FC284615E7304602F047
:1048E00053FC304600F0CCFE01200DE76CDA1508D1
:1048F00080DA15080000C84200007A4443F64843B5
:10490000C35C012B17D045F23C23DFED196A0A790D
:10491000034407EE902A93ED006AF8EEE77A86EEFC
:10492000267AB0EEC77AB4EEE77AF1EE10FAACBFB1
:1049300001200020704744F60C131B5C13F00103A8
:1049400001D11846704730B5044644F21C200D468C
:1049500085B0204492F04CFF05F10801204605F097
:104960001DFC204600F07AFE002005B030BD00BFDF
:10497000DB0FC94038B54B880446702B6CD028D863
:10498000132B1FD015D9152B74D044D35C2B48D0D2
:104990005D2B54D19CF020FE43F65C4343F6584215
:1049A000E358A158C01A884211D900230120A3500E
:1049B00038BD112B0BD038D8102B40D1BDE8384072
:1049C000FFF7C0BD44F60C131B5CDB075AD4002074
:1049D00038BDC92B2DD8C82B25D2732B38D067D81A
:1049E000722B2CD144F60810204492F011F844F2B6
:1049F0001423E35823EAE37307EE903AF8EEE77ADC
:104A0000B4EEE70AF1EE10FAE1D544F214230022E5
:104A10000120E25038BD44F60C13185C00F0010090
:104A200038BD8B8853BB012038BDBDE83840FFF747
:104A300065BFCD2B03D3CE2BF5D9DE2BF3D043F2BC
:104A40003070204A042120445DF012FF012038BD5F
:104A5000BDE83840FFF7DABD9CF0BEFD44F21822F5
:104A600044F21423A258E358801A23EAE3739842CD
:104A7000ADD9CAE7BDE83840FFF79CBDBDE8384076
:104A800002F096BB43F654454359B3B19CF0A4FDE4
:104A900043F654430C4943F65242E358A25AC31A10
:104AA000A1FB0313B2EB931F94BF0120002038BD7C
:104AB000A3F1B202012AB6D9C1E79CF08DFD605185
:104AC000E4E700BFA8DA1508D34D621043F64C1294
:104AD00070B5825C032A02D00025284670BD0E46C0
:104AE0000446FFF747FF05460028F5D043F2307033
:104AF0003188204463F096FAEFE700BF38B544F6FA
:104B00009803002400250344C3E9004503F0E4FFB3
:104B1000012038BD2DE9F04F2DED068B0AEE901ADD
:104B200009EE902A95B00022B8EEEA0B0746B8EEDF
:104B3000E97B09EE103A029220EE000B03920492F8
:104B4000059206920792249EA7EE070B259D269CB0
:104B5000B5EE400BB1EEC08BF1EE10FA00F1B98169
:104B6000B7EEC88BDFEDDF7AB4EEE78AF1EE10FA2C
:104B700019DDC7EE886AB8EEEA6AB8EEE97A26EE81
:104B8000266A27EE267AFDEEC67ACDED007AFDEE96
:104B9000C77ABDF90030CDED017A0AEE903ABDF941
:104BA000043009EE903A42F62C433B4493ED007AF0
:104BB000B5EEC07AF1EE10FA40F22E81F7EE006AFF
:104BC000B4EEE67AF1EE10FA40F33481B0EE667A94
:104BD000DFEDC57AC3ED006AB8EEEA6ADFEDC16ABF
:104BE000B8EEE95A42F61843C6EE265A3B44D3EDD6
:104BF000004A85EE266A25EEA55A25EEA7AA65EE9F
:104C0000255A26EE278A26EE065AA5EE87AAF0EE4A
:104C1000487A25EE066AE6EE077A2AEE26AA2AEEFA
:104C200024AA27EEA68A28EE248A42F61C4342F6DE
:104C30002848F8EEC98A3B4417F90820D3ED007ADA
:104C400068EEA78A52B986ED00AA85ED008AC4ED08
:104C5000008A15B0BDEC068BBDE8F08F41F6A87355
:104C600042F6204BF858BB4428F022FF40F6B832F9
:104C70009E49814629F030F840429BED007A41F68A
:104C8000AC7307EE900AF858F8EEE77A67EE877A89
:104C9000CDED027A28F00CFF40F6B83293498246F7
:104CA00029F01AF8404242F6244317F9082000215F
:104CB00007EE900A3B44022A0491F8EEE77A93ED5E
:104CC000007A67EE877ACDED037A00F0B68044F281
:104CD000F8289FED870AB84408F13C002DF00EFE3D
:104CE00014AA0DF1200E8DED110ACDED120A0EABB6
:104CF0008DED131A9FED7F0A12E9070083E8070084
:104D00008EE8070070462DF0F9FD05AB404602AA7B
:104D10000BA9CDED0C0A8DED0D1A8DED0B0A8DF062
:104D200047FF42F62843FB56022B00F0A680B8EE60
:104D3000E97BDFED6D0AB8EEEA6B8820B8EEC99B1F
:104D4000B0EEC77BB0EEC66BB0EEC99BB7EE005BB2
:104D5000B4EE467BB7EE001AF1EE10FA9FED5F4B12
:104D600048BFB0EE467BB4EE479BF1EE10FA48BF69
:104D7000B0EE479B89EE047B35EE477BB7EEC70B61
:104D800028F04EFF42F2E80305A83B44D3ED007A39
:104D900020EE270A2DF0B2FDF0EECA7A8DED071A4B
:104DA0009020F0EEC06ACDED060AB0EE407A3AEE01
:104DB000000A37EEE61A8DED057AB0EEC11AF1EE73
:104DC000410A28F02DFFB0EE40AA9DED060AB0EE94
:104DD000C81A9520F0EEC07A30EE080A31EE671A54
:104DE000B0EEC11AF1EE410A28F01AFFB0EE408A87
:104DF0009DED070AB0EEE81A9A20F0EEC07A38EE80
:104E0000800A31EE671AB0EEC11AF1EE410A28F0BD
:104E100007FFF0EE408A16E742F61843B8EEEAAA1A
:104E2000B8EEE98A3B44D3ED007A2AEE27AA28EEB1
:104E3000278AFAE676EEC77ACEE642F6A233FB5E22
:104E4000994535DDA9EB0309DDED026ADBED005A7A
:104E500006EE109AB8EEC66AE5EEC66ACDED026AB5
:104E60009A4517DDAAEB030A06EE90AAF8EEE66A69
:104E7000E7EE667ACDED037A29E7DDED056A9DED73
:104E8000067ADDED077A3AEE26AA38EE078A78EE42
:104E9000A78AD8E65A429245BFF619AF9A4406EE61
:104EA00090AAF8EEE66AE7EE667ACDED037A0EE7B1
:104EB0005A429145D4DA99449DED026ADBED005ADD
:104EC00006EE909AF8EEE66AA5EEE66A8DED026AC5
:104ED000C6E72CF1C5F943E6AFF3008000000000FF
:104EE0000094B14000A08C450000000048F4FFFF92
:104EF0009F0CB345D302373943F6E113F0B5C35CD9
:104F0000044689B043F67410002B4AD02044022195
:104F100094F0CAFB43F2645343F25C5243F258519B
:104F200044F2F825E358A25805A8615807AF06AE29
:104F30002544B2F90820B1F90810B3F908308DE81A
:104F4000C1002046FFF7E6FD9DED071ADDED060ADC
:104F500028469DED050A8EF0F9FB43F26053E058B8
:104F600067F096FC42F6AC33002128462344D3ED8B
:104F7000000A8DF08BF843F26853E05867F088FC24
:104F800043F6A01343F26C52234483ED000AA05869
:104F900067F07EFC43F6A413234483ED000A09B0B6
:104FA000F0BD2044012194F07FFB44F2F82542F645
:104FB000AC33012125449FED060A23442846D3ED56
:104FC000000A8DF063F828468DF044FF09B0F0BD6B
:104FD000000000002DE9F0410446FCF7B9FD05464C
:104FE00010B92846BDE8F08142F6CC382046FCF7DF
:104FF000CFFF42F6C83734F90830404244F23866F1
:1050000001EE103AE35F07EE900A264400EE903A74
:10501000B8EEC11AB8EEE70A3046F8EEE00A8FF0B3
:105020002BFD2046FCF7B4FF34F9083001EE103AAE
:105030004342304600EE103AE35FB8EEC11A00EE8C
:10504000903AB8EEC00AF8EEE00A8FF095FD3046CF
:1050500090F0D2F843F64D13E35C33B1002345F2F0
:10506000B43145F2B8326350A35041F6B07245F204
:10507000AC33A258E2509CF0AFFA45F2B033E050A6
:105080002846BDE8F08100BFF0B504462DED028B47
:1050900089B09CF0A1FA06462046FCF779FF42F65B
:1050A000CC3242F6C8334142A25E44F23860E35E3D
:1050B00000EE101A01EE102A204400EE903AB8EEED
:1050C000C00AB8EEC11AF8EEE00A8FF0D5FC43F63C
:1050D00074100221204494F0E7FA814945F27C33B0
:1050E00041F28732CB58F31A934240F28D8043F25B
:1050F000585243F25C5344F2F825A258E358254431
:10510000B2F90820B3F90830284608EE902A08EED4
:10511000103A8DF083F9F8EEE88A02AAB8EEC88A50
:1051200001A9B0EE401A2046B0EE680AF0EE480A37
:10513000FCF708FE43F264532046E358B3F9081025
:10514000FCF776FEB0EE401A9DED010ADFED657AC0
:10515000B0EEC07A8DED031ADDED020AB4EEE77A07
:10516000F1EE10FA1FDD41F6A87041F6AC7141F680
:10517000B07245F2B43354F800C045F2B83754F871
:1051800001E02846A15845F2AC3244F803C045F28C
:10519000B03344F807E0A150E6508EF0D7FA09B0DA
:1051A000BDEC028BF0BDB0EEE07AB4EEE77AF1EE42
:1051B00010FAD8DCB0EEC17AB4EEE77AF1EE10FA6C
:1051C000D1DC45F2B033E358FA339E427AD345F24C
:1051D000AC3145F2B83245F2B43328466158A25892
:1051E000E35801EE101A00EE902A012100EE103A69
:1051F000B8EEC11AF8EEE00AB8EEC00A8EF05CFF15
:1052000009B0BDEC028BF0BD45F2843345F2883223
:1052100045F28C3145F2903023442244214420440D
:10522000D3F800E003AB176802AA0E6801A905686D
:1052300004A8CDF810E0059745F2B4370696079517
:105240002CF030F8DFED285A44F2F8209DED027A78
:1052500045F2AC3EDDED016A45F2B83527EE257A20
:10526000DDED037A9FED216A66EEA56A67EEA57A09
:10527000012127EE067A204466EE866A67EE867A7A
:10528000FDEEC75A8DED027ABDEEE66ACDED016AFC
:10529000B0EE660ACDED037A15EE906AFDEEE75AA0
:1052A00016EE103AF0EE470AB0EE671A15EE902AA5
:1052B000E351665144F80E208EF0FEFE09B0BDECBD
:1052C000028BF0BD9FED0A1A2846F0EE410AB0EEBF
:1052D000410A8EF03BFA09B0BDEC028BF0BD00BF75
:1052E0000026003000004842E02E65420000C8421F
:1052F000000000002DE9F04141F69876044642F6A0
:10530000C83744F238650644254430462DED028BFB
:1053100092B009F0A3FB43F268538046E05867F06F
:10532000B7FA43F26C53F0EE408AE05867F0B0FAF7
:1053300043F26053B0EE408AE05867F0A9FAF6EE07
:10534000007AB1EE487A09A9F1EE686A404630EE7B
:10535000670A8DED0A7ACDED096A30EE000A8DED0F
:105360000B0A29F00DF8E35F20469FED600A07EE77
:10537000903AF8EEE77AA7EE810AFCF765FD204641
:10538000B0EE408AFCF704FEE35F01EE103A4342C0
:10539000B0EE480A6C2000EE903AB8EEC11AF8EE72
:1053A000E00A28F03DFCB0EE408A28468FF08AFDE6
:1053B000DFED4F7AB0EEC88AB4EEE78AF1EE10FA6C
:1053C00006D543F64813E35C1A0672D45B0654D440
:1053D000284643F6981590F0AFFB304609F03EFBA7
:1053E0002544014609A829F0BBF8F6EE007A95EDB0
:1053F000000AB7EE001AFFEE000A382030EE670A06
:1054000030EE000A28F00CFC002306A909A88DED57
:10541000080A0693079328F0B3FF43F26053B0EEF7
:10542000418ACDED040AE0588DED030A67F030FAA9
:1054300038EE000A43F2685385ED000AE05867F041
:1054400027FADDED037A43F6A01343F26C5230EEF7
:10545000670A234483ED000AA05867F019FADDEDCE
:10546000047A43F6A41330EE670A234483ED000A5E
:1054700012B0BDEC028BBDE8F08144F21C20204448
:1054800092F0BAF944F69803F2EE046A234493EDDD
:10549000007B30EE260AB7EEC77BB4EE470AF1EE8A
:1054A00010FAC8BFB0EE407AB7EEC77A83ED007B42
:1054B0008EE744F6980342F63042F1EE047A234434
:1054C000224493ED006B92ED007AB7EEC66B37EE97
:1054D000677AB4EE467AF1EE10FAC8BFB0EE467ABB
:1054E000B7EEC77A83ED007B72E700BF0000FA4396
:1054F000CDCC4C3D43F6E11370B5C55C044635B1E7
:10550000FFF7C2FD2046BDE87040FFF7F3BE43F64B
:105510007410012144F2F826204494F0C5F842F6B4
:10552000AC33264401212344B6EE000A3046D3EDC5
:10553000000A8CF0ABFD30468DF08CFC43F61C234A
:105540003420B6EE061A2344F4EE000A93ED000A66
:1055500028F066FB44F2386020448FF09FFB41F650
:10556000B07345F2AC3245F2B430E15845F2B8338D
:105570002550A150E55070BD38B5044605F0A8FB94
:105580000546E0B143F28463E35A012B1CD944F28F
:10559000F01343F648410420E25C6054022A10D024
:1055A00044F608109FED0A0A204491F031FF20468E
:1055B00001F06AF943F25860204430F06FF9284650
:1055C00038BD0022E254EBE70025284638BD00BF75
:1055D0000000000010B543F648430446002244F69C
:1055E0000810E254204491F055FE18B344F2F01331
:1055F000E25C022A1BD042F6C533E35C042B17D8C9
:105600001549CB5C9A4212D044F2F012022BA354FB
:1056100016D0042B13D141F6B07244F21023A258D5
:10562000234407EE902AF8EEE77AC3ED007A10BD26
:105630000123E7E72046BDE8104002F09FBE10BD01
:1056400041F6B07204F58443A25807EE902AF8EEB2
:10565000E77AC3ED007A10BDC4DA150845F2F813F5
:1056600043F6484145F25422034410B40224445402
:1056700003F12001825C18465DF8044B90F08CBD6C
:1056800043F648430322012110B50446C25401F0F9
:1056900049F92046BDE8104001F076BD42F6C53319
:1056A000C356042B0DD8DFE803F0030C09070500EF
:1056B00000207047062070470420704781F00100E9
:1056C00070470120704700BF44F2F013C25C8A4269
:1056D00010D00229C1540FD004290CD141F6B07268
:1056E00044F210238258034407EE902AF8EEE77A3A
:1056F000C3ED007A7047704741F6B07200F58443FD
:10570000825807EE902AF8EEE77AC3ED007A7047E8
:1057100070B5044644F2343015460E4620442DED53
:10572000048BB0EE408A84B09FED2C0AF0EE608AC4
:105730002DF0E4F8BDEEC19A55B3002EB8EEC90ABB
:10574000DFED277AB8BFB1EE488AA8EE270A28F025
:10575000FFF9F0EEE87A9FED237ABDEEC00A44F23D
:105760000823F4EEC77A10EE102AF1EE10FAE25098
:1057700013D544F20C233C22E25244F2F013E25CD3
:10578000032A01D00322E25404B0BDEC048B70BDA7
:105790009FED130A28EE000AD9E744F20823124DC0
:1057A000E05819EE103AC01A28F082F94FF4B4729A
:1057B000C31785FB00500121C3EB601307EE903A3D
:1057C000F8EEE77A87EEA87AFDEEC77A17EE900A30
:1057D00028F082FA44F20C23E052CEE79F0CB34546
:1057E0000000C842000000341F85EB51F8B54B683B
:1057F0000D4606460BB98B6873B145F260243444FC
:10580000A178204669F00EFB20B32A46A1782046F5
:10581000BDE8F84069F0ECBBCB68002BEDD142F657
:10582000C533C35C042B3BD82E4AD35C44F2F01240
:10583000B15C994204D0022BB35440D0042B31D038
:1058400045F260243444A178204669F0F5FA042832
:1058500041D0F8BD44F2F4172946304604F09EFCCE
:10586000374444F2F01387ED000AC7ED010A87EDD3
:10587000021AF25C022AC8D041F6B07006F58442E2
:1058800002213058F15407EE900A2046F8EEE77AEC
:10589000C2ED007A2A46A178BDE8F84069F0A8BBBD
:1058A0000123C3E741F6B07244F21023B2583344E7
:1058B00007EE902AF8EEE77AC3ED007AC0E741F6EA
:1058C000B07206F58443B25807EE902AF8EEE77AF4
:1058D000C3ED007AB4E7A1782046BDE8F84069F04E
:1058E000B1BA00BFC4DA150844F2F01310B52DEDBB
:1058F000028BC35C82B00446023B042B69D8DFE80C
:1059000003F0465D4C52030044F60810204400F6B4
:105910007C0100F5076028F08BFC44F6AC03684678
:10592000B0EE408A23441A685B68009201932CF021
:1059300017FD44F658039FED347A2344D3ED007AE3
:1059400067EE877AB4EEE70AF1EE10FA4ADA9FEDD5
:105950002F0A42F6C433DFED2E0A40F20E20E35642
:105960005A4207EE103A07EE902AB8EEC71AF8EE40
:10597000E77A21EE201A67EEA00A28F051F938EEF6
:10598000000A28F0E5F802B0BDEC028B10BDFCF770
:1059900029FB02B0BDEC028B10BDFCF745FB02B049
:1059A000BDEC028B10BD43F64C43C35800EE103AD9
:1059B000B8EEC00A02B0BDEC028B10BD44F2082361
:1059C000C35800EE103AB8EEC00A02B0BDEC028B2C
:1059D00010BD44F61813C35893ED920A02B0BDEC03
:1059E000028B10BD68462CF071FCDFED0A7A9FED4A
:1059F000087A20EE270AF0EE487AD0EE077AB0EE69
:105A0000670A28F06DF8A4E7CDCCCC3D000000007B
:105A10000000C842E02E65422DE9F041044641F203
:105A2000B0401921204456F045F90238022802D925
:105A30000020BDE8F081052243F6484344F2386572
:105A400044F62C18E25444F638179BF0C5FD45F295
:105A5000C0332544A044E05043F2586044F6281671
:105A6000274420442DF06EFF45F2CC13002245F26E
:105A7000A4102344264420445A601A6090F010FE7B
:105A800043F61C23B6EE061A34202344F4EE000A33
:105A900093ED000A28F0C4F828468FF0FFF898ED3F
:105AA000000A284697ED001AD6ED000AB0EEC00AAB
:105AB0008EF0E2FF98ED000A284697ED001AB0EE4E
:105AC000C00AD6ED000A8FF057F843F23070044A4E
:105AD000042120445CF0CCFE0120BDE8F08100BF31
